:020000040800F2
:100000006008002001010008EF3E0008EB380008FE
:10001000ED3E0008C703000821480008000000006A
:10002000000000000000000000000000313F000858
:10003000FF03000800000000133F0008333F0008E2
:100040001B0100081B0100081B0100081B01000820
:100050001B0100081B0100081B0100081B01000810
:100060001B0100081B0100081B010008C903000850
:100070001B0100081B0100081B0100081B010008F0
:100080001B0100081B010008810200081B01000879
:100090001B0100081B0100081B0100081B010008D0
:1000A0001B0100081B0100081B0100081B010008C0
:1000B0001B0100081B0100080D4000081B0100087F
:1000C0001B0100081B0100081B010008153F000868
:1000D0001B010008C94700081B0100081B0100089C
:1000E0001B0100081B0100081B010008DFF80CD0F1
:1000F00000F0B4F800480047C54E00086008002032
:100100000648804706480047FEE7FEE7FEE7FEE7B1
:10011000FEE7FEE7FEE7FEE7FEE7FEE7C53F000875
:10012000ED00000840EA01039B0703D009E008C97D
:10013000121F08C0042AFAD203E011F8013B00F8AC
:10014000013B521EF9D2704730B480EA010202F03E
:10015000004530F0004221F0004013D090B1C30DB3
:10016000D40DC2F31601C0F31600E41A41F40001E5
:1001700040F400027D34914201D3641C00E0490048
:10018000002C02DA30BC002070474FF4000000233E
:10019000914201D3891A034340084FEA4101F7D144
:1001A00051B1914202D14FF0004105E002D24FF02F
:1001B000010101E06FF0010103EBC450284430BCA1
:1001C00000F015B8420005D0C0F3C7525242914228
:1001D00001DC0020704700EBC1507047C10F80EA7E
:1001E000E0700844CA079623002100F009B80029EE
:1001F000A8BF7047401C490008BF20F001007047AD
:1002000010B4B0FA80FC00FA0CF050EA010404BF0C
:1002100010BC704749B1CCF1200421FA04F411FA62
:100220000CF118BF012121430843A3EB0C01CB1DA6
:100230004FEA00614FEA102042BF002010BC704717
:1002400000EBC35010440029A4BF10BC7047401CF1
:10025000490008BF20F0010010BC7047064C074D54
:1002600006E0E06840F0010394E807009847103486
:10027000AC42F6D3FFF73EFFC4550008E455000832
:10028000014800F0EDB900000C02002070B50446F2
:1002900000688168C943C9071CD1816821F0010148
:1002A000816001F0ABF805460FE000BF01F0A6F851
:1002B000401B022809D9A06A40F01000A062E06A41
:1002C00040F00100E062012070BD20688068C043FA
:1002D000C007EBD0002070BD10B50146406A826AAD
:1002E00012F0500F05D0006A026BBDE810400846BE
:1002F0001047816A41F40071816201688968C1F325
:10030000424107290CD1C16851B9816A21F4807139
:100310008162816AC90403D4816A41F0010181626A
:1003200000F09AF910BD10B5406A816A41F04001B1
:100330008162C16A41F00401C16200F08FF910BD11
:1003400010B5406A00F089F910BD0000F8B500262C
:100350000446009600688168C943C90728D08168AF
:1003600041F001018160134813490068B0FBF1F0CE
:1003700000E0401E00900028FBD101F03FF8054648
:1003800011E000BF01F03AF8401B02280BD9A06A27
:1003900040F01000A062E06A40F00100E06284F8E2
:1003A00024600120F8BD20688068C043C007E9D1FF
:1003B0000020F8BDE800002040420F00130A03802F
:1003C000D0B208807047FEE7014800F057BC00003B
:1003D0001804002030B590F840500124AC40C56BA3
:1003E0006C60046863604368102B036803D09960F5
:1003F0000068C26030BD9A600068C16030BD70475F
:100400002DE9F0411C4615460E46074600F0F6FF62
:10041000000E388000F0F2FFC0F30740308000F09B
:10042000EDFFC0F30720288000F0E8FFC0B2208075
:10043000BDE8F081704700002DE9F843002605462D
:1004400000960068724F0C46B046B84207D071491A
:10045000884204D040F2AA616FA004F0F2F920684B
:1004600030B3012824D0022822D0032820D0042829
:100470001ED005281CD006281AD0072818D0082816
:1004800016D0092814D00A2812D00B2810D00C2816
:100490000ED00D280CD00E280AD00F2808D0102816
:1004A00006D0112804D040F2AB615BA004F0C9F97A
:1004B0006068012822D0022820D003281ED00428FA
:1004C0001CD005281AD0062818D0072816D00828CE
:1004D00014D0092812D00A2810D00B280ED00C28CE
:1004E0000CD00D280AD00E2808D00F2806D01028CE
:1004F00004D040F2AC6148A004F0A3F9A06890B128
:10050000012810D002280ED003280CD004280AD0CD
:10051000052808D0062806D0072804D040F2AD618F
:100520003DA004F08EF995F82400012812D0012096
:1005300085F8240060681F2107280ED22A68536BB3
:10054000401E00EB800081408B43216881400B43BB
:1005500053631AE00220BDE8F8832A680D280AD206
:10056000136BC01F00EB800081408B4321688140EA
:100570000B43136309E0D36A0D3800EB8000814020
:100580008B43216881400B43D362206807210A28EE
:100590000BD32A68D3680A3800EB400081408B43B4
:1005A000A16881400B43D36009E02B681A6900EB16
:1005B000400081408A43A16881400A431A61206853
:1005C000102801D011281FD12868B84217D181689E
:1005D000090219D4816841F4000181602068102863
:1005E00012D11B481B490068B0FBF1F000EB800002
:1005F000400000E0401E00900028FBD104E0A86A03
:1006000040F02000A862012685F824803046A2E749
:1006100000240140002801402E2E2F447269766587
:1006200072732F53544D3332463178785F48414CC2
:100630005F4472697665722F5372632F73746D33E2
:1006400032663178785F68616C5F6164632E630045
:10065000E800002040420F007047704770470000DC
:1006600010B5044600684749884207D04649884289
:1006700004D040F2D95145A004F0E3F8E06830B16D
:10068000012804D040F2DA5140A004F0DAF82069E1
:10069000401E0F2804D940F2DB513CA004F0D1F8F1
:1006A00020684168890626D50168890723D5A16A93
:1006B000C90603D4A16A41F40071A1628168C1F343
:1006C0004241072910D1E16871B9416821F0200148
:1006D0004160A06A20F48070A062A06AC00403D4C4
:1006E000A06A40F00100A0622046FFF7B5FF216834
:1006F0006FF0120008602068416809062ED5016875
:1007000049072BD5A16AC90603D4A16A41F4005157
:10071000A1628168C1F30231072909D04168490506
:1007200015D48168C1F34241072910D1E16871B93C
:10073000416821F080014160A06A20F48050A062ED
:10074000A06AC00503D4A06A40F00100A062204660
:10075000FFF770FE21686FF00C00086020684168A8
:1007600049060DD50068C0070AD0A06A40F4803061
:10077000A062204600F036F921686FF001000860A1
:1007800010BD000000240140002801402E2E2F44FF
:100790007269766572732F53544D333246317878CF
:1007A0005F48414C5F4472697665722F5372632FC4
:1007B00073746D3332663178785F68616C5F616441
:1007C000632E63002DE9F0414FF00006040035462A
:1007D00076D071492068884207D07049884204D099
:1007E0004FF4C1716EA004F02CF8606838B1B0F518
:1007F000006F04D040F2831169A004F022F8A068D1
:100800004FF4807830B1404504D04FF4C27164A0F9
:1008100004F017F8E06830B1012804D040F28511E7
:100820005FA004F00EF8E069B0B1B0F5003F13D05E
:10083000B0F5C02F10D0B0F5002F0DD0B0F5202F9F
:100840000AD0B0F5402F07D0B0F5602F04D04FF498
:10085000C37153A003F0F5FFA06800281CD02069E5
:10086000401E0F2804D94FF4C5714DA003F0E9FFD5
:10087000606988B1012806D040F28B1148A003F0CE
:10088000E0FF606940B1A069401E072804D94FF419
:10089000C77143A003F0D5FFA06A002728B9E7621B
:1008A00084F82470204600F09FF82046FFF7EEFC05
:1008B000A16AC90600D420B1A06A40F01000A0626D
:1008C00068E0A16A21F4885141F00201A1626268E6
:1008D000E169E3680A4346EA43010A43A1684646E0
:1008E000B14209D0012907D05FF00001D4F814C04B
:1008F000BCF1010F02D00AE04146F7E7F3B1A36A69
:1009000043F02003A362E36A43F00103E362236838
:10091000D3F804C02CF4694C4CEA010CC3F804C0B1
:1009200021688B68DFF8B0C003EA0C0313438B60C7
:10093000A168B1420BD0012909D00CE0DFF89CC0BE
:10094000A3690CEB43330B4343F40061DFE7218AD7
:100950000D05A5F580152168CB6A23F470032B43A0
:10096000CB62216889681E4B1940914208D1E76229
:10097000A16A21F0020141F00101A162BDE8F0810C
:10098000A06A20F0020040F01000A062E06A40F08F
:100990000100E0620120F1E700240140002801404D
:1009A0002E2E2F447269766572732F53544D333255
:1009B000463178785F48414C5F4472697665722FA2
:1009C0005372632F73746D3332663178785F686168
:1009D0006C5F6164632E6300FDF7E1FF00E0FFFFE1
:1009E000FE0E1FFF7047000030B5054600681C4929
:1009F00085B0884231D11B48816941F40071816121
:100A00008069694600F400700490F0200090032093
:100A10000190154800F0FCFA154C14488021206024
:100A200000206060C4E90201490021618900616120
:100A30002021C4E90610204600F0CAF918B17A2135
:100A40000CA003F0EEFE2C62002201211220656250
:100A500001F006F9122001F0D3F805B030BD000016
:100A6000002401400010024000080140080002403C
:100A7000180400202E2E2F5372632F73746D33329F
:100A8000663178785F68616C5F6D73702E6300000B
:100A90002DE9F047044600683F4D90468946A8423C
:100AA00004D040F2FC413DA003F0CBFE3A4E20685A
:100AB000484F361DA84201D0B84207D1306810F423
:100AC000702F03D001252846BDE8F08794F8240054
:100AD00001280CD0012084F824002046FFF736FCC2
:100AE00005004FF0000004D084F82400EBE702205A
:100AF000EAE7A16A40F60162914341F48071A16284
:100B00002168B94218D1326812F4702F14D0A16A4A
:100B100041F48011A1623168490505D5A16A21F42B
:100B2000005141F48051A162A16AC9040AD5E16A69
:100B300021F00601E16206E0A26A22F48012A262BC
:100B40004968E9E7E06284F82400216A2248886263
:100B5000216A2248C862216A2148086321686FF02F
:100B6000020008602068816841F48071816021681A
:100B700043464A464C31206A00F0E4F92068816817
:100B8000C1F342410729816803D041F4801181609B
:100B900099E741F4A001FAE7002401402E2E2F44EA
:100BA0007269766572732F53544D333246317878BB
:100BB0005F48414C5F4472697665722F5372632FB0
:100BC00073746D3332663178785F68616C5F61642D
:100BD000632E630000280140D90200084103000889
:100BE0002703000810B590F821100024022903D033
:100BF0000421816301243DE001680A6822F00E02AD
:100C00000A6001680A6822F001020A601A4A016853
:100C1000914201D1012121E0174A1432914201D1C0
:100C200010211BE0144A2832914201D1891515E0A8
:100C3000114A3C32914201D189140FE00E4A5032E0
:100C4000914202D14FF4803108E00B4A6432914264
:100C500002D14FF4801101E04FF08071064A083A4A
:100C60005160012180F82110002180F82010416B93
:100C700001B18847204610BD080002402DE9F05F11
:100C8000C16B0C6801680B68D0F840C0042202FAFE
:100C90000CF2494DDFF824A1494E4A4FDFF828B144
:100CA000DFF828E122422CD05A072AD50A6892069A
:100CB00003D40A6822F004020A600168A94201D143
:100CC000042219E0514501D1402215E0B14202D180
:100CD0004FF4806210E0B94202D14FF480420BE041
:100CE000594502D14FF4802206E0714502D14FF4FC
:100CF000800201E04FF080622F4908394A60C16AE2
:100D00003BE04FF0020808FA0CF818EA040F4FF025
:100D100000094FF0010235D05FEA837832D50B68C5
:100D20009B0605D40B6823F00A030B6080F8212092
:100D30000168A94201D1022219E0514501D12022C6
:100D400015E0B14202D14FF4007210E0B94202D175
:100D50004FF400520BE0594502D14FF4003206E047
:100D6000714502D14FF4001201E04FF000721249B8
:100D700008394A6080F82090816A00291AD0BDE8BD
:100D8000F05F0847082505FA0CF5254212D01B072D
:100D900010D50B6823F00E030B6090F84010C36B66
:100DA00002FA01F15960826380F8212080F82090D6
:100DB000016BE2E7BDE8F09F080002401C00024022
:100DC0003000024044000240580002406C000240E3
:100DD00070B504007ED04C49206888421BD04A4937
:100DE0001431884217D048492831884213D04649E7
:100DF0003C3188420FD04449503188420BD042499F
:100E00006431884207D040497831884203D0AA2112
:100E10003EA003F016FD606840B1102806D0B0F582
:100E2000804F03D0AB2139A003F00BFDA068402810
:100E300004D018B1AC2135A003F003FDE068802890
:100E400004D018B1AD2131A003F0FBFC206948B1FA
:100E5000B0F5807F06D0B0F5007F03D0AE212BA087
:100E600003F0EFFC606948B1B0F5806F06D0B0F5D3
:100E7000006F03D0AF2125A003F0E3FCA06928B1E7
:100E8000202803D0B02121A003F0DBFCE06960B191
:100E9000B0F5805F09D0B0F5005F06D0B0F5405FD7
:100EA00003D0B12119A003F0CCFC04CC16481421C6
:100EB00040421044B0FBF1F08000E0631248083873
:100EC000A06302206077116843F6F0708143D4E993
:100ED000000300E016E01843D4E902352B43184321
:100EE0002369184363691843A369184308431060D2
:100EF00000206062A062E06220636063012161778C
:100F0000207770BD012070BD080002402E2E2F44B6
:100F10007269766572732F53544D33324631787847
:100F20005F48414C5F4472697665722F5372632F3C
:100F300073746D3332663178785F68616C5F646DAD
:100F4000612E63002DE9F041884604460025581EB5
:100F50004FF6FF711E461746884204D34FF4C07106
:100F60001DA003F06EFC94F8200001280DD0012094
:100F700084F8200094F821100020012907D084F87B
:100F8000200002252846BDE8F0810220FBE702216F
:100F900084F82110A0632068016821F0010101603C
:100FA00033463A4641462046FFF714FAE06A0028E5
:100FB0002068016802D041F00E0106E021F0040132
:100FC00001602068016841F00A0101602068016841
:100FD00041F001010160D5E72E2E2F44726976653C
:100FE00072732F53544D3332463178785F48414CF9
:100FF0005F4472697665722F5372632F73746D3319
:1010000032663178785F68616C5F646D612E630071
:101010002DE9F84FDFF8A8B20D4604464FF000095D
:1010200058450FD0A74884420CD0A748844209D025
:10103000A648844206D0A648844203D0CD21A5A06C
:1010400003F0FFFB28680104090C01D0000C03D059
:10105000CE21A0A003F0F5FB6868F8B101281DD0EF
:1010600011281BD0022819D0122817D0A84988426D
:1010700014D0A849884211D0A74988420ED0A74968
:1010800088420BD0A649884208D0A649884205D09C
:10109000032803D0CF218FA003F0D3FB00274FF00C
:1010A000010A00BF2E680AFA07F806EA0806464554
:1010B0006FD15C450FD0834884420CD08248844273
:1010C00009D08248844206D08148844203D0DD2181
:1010D00080A003F0B6FB8E4869680A1A814259D095
:1010E0000EDC032976D006DC002953D0012919D063
:1010F00002296AD131E0112921D0122965D13AE0C3
:10110000B2F5881F46D006DCB2F5803F42D0B2F57A
:10111000801F5AD13EE0B2F5001F3BD0B2F5041F4C
:1011200053D137E0E868022807D0012805D003280A
:1011300003D0E52167A003F084FBE8683FE0E8689E
:10114000022807D0012805D0032803D0EC2161A094
:1011500003F077FBE868001D31E0E868022807D05B
:10116000012805D0032803D0F3215AA003F069FB1E
:10117000E868083023E0E868022807D0012805D095
:10118000032803D0FA2153A003F05BFBE8680C307E
:1011900015E089E0A86888B1012812D0022808D09B
:1011A00040F207114BA003F04CFBA86830B10128B6
:1011B00007D04FF00809C4F8148006E004208146E7
:1011C00003E04FF00809C4F81080FF2E05D822462E
:1011D00005E0FFE74FF00000F1E704F104024FEAF9
:1011E000870001D9A0F1200013684FF00F0101FA28
:1011F00000FC23EA0C0309FA00FC43EA0C03136029
:101200006868C00056D54848826942F00102826190
:10121000806927F0030200F0010000904348024477
:101220009068BB071B0F994088435C4501D10021A2
:101230000FE024498C4201D101210AE022498C426D
:1012400001D1022105E021498C4201D1032100E0B6
:1012500004219940014391606868C00334480168E3
:1012600001D5314300E0B143016068688003314833
:10127000016801D5314300E0B14301606868C002F4
:1012800005D52C48001D01683143016004E029495F
:10129000091D0868B04308606868800205D52549C3
:1012A000083108683043086004E0224808300168CB
:1012B000B14301607F1C102FFFF4F4AEBDE8F88F3E
:1012C00000080140000C01400010014000140140E2
:1012D000001801402E2E2F447269766572732F53C9
:1012E000544D3332463178785F48414C5F447269DF
:1012F0007665722F5372632F73746D333266317853
:10130000785F68616C5F6770696F2E630000000032
:101310000000111000002110000031100000121018
:1013200000002210000032100010024000000140B6
:10133000000401400404014070B50C00054604D1CE
:1013400040F2F91103A003F07CFAE8686040E8601D
:1013500070BD00002E2E2F447269766572732F5374
:10136000544D3332463178785F48414C5F4472695E
:101370007665722F5372632F73746D3332663178D2
:10138000785F68616C5F6770696F2E6300000000B2
:1013900070B515460C00064604D140F2E31108A0D2
:1013A00003F04FFA45B1012D04D04FF4F27104A0BF
:1013B00003F047FA346170BD2004306170BD000055
:1013C0002E2E2F447269766572732F53544D33322B
:1013D000463178785F48414C5F4472697665722F78
:1013E0005372632F73746D3332663178785F68613E
:1013F0006C5F6770696F2E630000000001488068B1
:1014000070470000DC00002070B5040074D07749FC
:101410002068884207D07649884204D040F27D1186
:1014200074A003F00EFA60688049401E884204D917
:101430004FF4BF716FA003F004FAA0684FF4804529
:1014400030B1A84204D040F27F116AA003F0F9F94C
:10145000E068800A04D04FF4C07166A003F0F1F98F
:101460002069A84207D0B0F5404F04D040F2811166
:1014700060A003F0E6F9606930B1012804D04FF4B0
:10148000C1715CA003F0DDF9A06930F0FE0004D06A
:1014900040F2831157A003F0D4F9E06930B140283D
:1014A00004D04FF4C27153A003F0CBF9206A30B1DD
:1014B000802804D040F285114EA003F0C2F994F8C0
:1014C0003D00002520B984F83C50204600F088FA01
:1014D000242084F83D002068016821F001010160AA
:1014E00000F054FE524A6168914202D8514901E02D
:1014F00002E05149884201D2012070BD4F49236862
:10150000B0FBF1F159606368934206D94FF49673CA
:1015100059434FF47A73B1FBF3F12368491C196204
:101520006168914210D84900401EB0FBF1F2521C94
:10153000C2F30B02042A01D2042023E0B0FBF1F035
:10154000401CC0F30B001DE0A368D3B301EBC10244
:1015500002EB0116421EB2FBF6F2521C42F480422C
:10156000120537D073B301EBC10202EB0111401E2B
:10157000B0FBF1F0401CC0F30B0040F4804000BF12
:1015800040F400402168C861D4E90701084321689C
:101590000860D4E90310084321688860D4E9050194
:1015A00008432168C8602068016841F001010160BA
:1015B0002564202084F83D00256384F83E500020F7
:1015C00070BD00E008E001EB4106421EB2FBF6F2FE
:1015D000521CC5E70120D5E701EB4101401EB0FBDD
:1015E000F1F0401CC0F30B00CAE7000000540040BB
:1015F000005800402E2E2F447269766572732F5367
:10160000544D3332463178785F48414C5F447269BB
:101610007665722F5372632F73746D33326631782F
:10162000785F68616C5F6932632E63007F1A060021
:10163000A086010080841E0000093D0040420F008A
:101640002DE9F84F1F4690468A460446DDF828905B
:10165000FFF7D4FE064694F83D0020287ED11923DA
:10166000012243492046009602F03DFA00287DD130
:1016700094F83C00012879D0012084F83C002068CF
:101680000168C90703D1016841F0010101602068C8
:10169000016821F400610160212084F83D001020E0
:1016A00084F83E0000252564C4F82480678531480D
:1016B000E062608D208533464A465146204602F05E
:1016C00029F928B1206C84F83C5004284CD00DE056
:1016D000206841698069009030E0324649462046E2
:1016E00002F0A7FA28B1206C042838D00320BDE806
:1016F000F88F606A411C6162216800780861608D22
:10170000401E6085208D401E80B2208521684A6978
:10171000D24352070BD450B1606A421C6262007817
:101720000861608D401E6085208D401E20853246F8
:101730004946204602F0B0F90028D4D1208D002877
:10174000CBD154F83D0B016841F4007101602020B9
:1017500004F81E09E57765770020C8E706E02068F1
:10176000016841F4007101600120C0E70220BEE77A
:10177000020010000000FFFF2DE9FF4F83B01F465D
:10178000DDE9119893460446DDF840A0FFF736FEE8
:101790000546012F06D0102F04D040F61B217FA054
:1017A00003F04FF894F83D00202871D1192301224D
:1017B00088492046009502F096F90028F5D194F862
:1017C0003C00012864D0012084F83C0020680168B6
:1017D000C90703D1016841F0010101602068016877
:1017E00021F400610160222084F83D00402084F84B
:1017F0003E0000262664C4F824A0A4F82A90764867
:10180000E062608D2085CDE900853B465A46204642
:10181000049902F0C9F828B1206C84F83C600428CF
:1018200050D074E0208D6D4F68B1012814D002288B
:10183000206801681ED041F4806101602068416920
:10184000806900909BE0206841698169009101688E
:1018500041F40071016092E02068016821F4806128
:10186000016072B62068416981690091016841F4A4
:1018700000710AE041F40061016072B620684169BC
:1018800081690091016821F48061016062B676E0AF
:1018900081E0032850D801280BD0022843464FF09E
:1018A000000239462046009512D002F01CF970BBA8
:1018B00013E02A464146204602F08AF930B1206CF6
:1018C000202824D0012007B0BDE8F08F20684BE02D
:1018D00002F009F9D8B972B61BE02068016821F45A
:1018E0008061016072B620680169606A421C6262B0
:1018F0000170208D401E2085608D401E608543460E
:10190000002239462046009502F0EDF808B1032088
:10191000D9E72068016841F400710160206801691D
:10192000606A421C62620170208D401E2085608DBD
:10193000401E608562B6C9E72A464146204602F04D
:1019400047F90028BBD120680169606A421C6262C5
:101950000170208D401E2085608D401E60852068AE
:101960004169C94349070AD40169606A421C62623D
:101970000170208D401E2085608D401E6085208D69
:10198000002886D1202084F83D0084F83E6084F849
:101990003C60002097E7022095E700002E2E2F44A0
:1019A0007269766572732F53544D333246317878AD
:1019B0005F48414C5F4472697665722F5372632FA2
:1019C00073746D3332663178785F68616C5F693249
:1019D000632E6300020010000000FFFF04000100FE
:1019E00000B500680C4985B0884212D1C020009033
:1019F000122001900320039069460848FFF708FB76
:101A00000748C16941F40011C161C06900F40010C8
:101A1000049005B000BD000000540040000C0140DF
:101A20000010024070B5040033D024492068884279
:101A300003D0AD2122A002F004FF606878B1012834
:101A40000DD002280BD0032809D0042807D0052880
:101A500005D0062803D0AE2119A002F0F2FEA0683E
:101A6000B0F5805F03D3AF2115A002F0EAFE216834
:101A70004CF6CC400860216845F255500860D4E926
:101A8000000141602168A0688860FFF7B7FC054647
:101A900009E0012070BD00BFFFF7B0FC401B3028FB
:101AA00001D9032070BD2068C0680028F4D12168E6
:101AB0004AF6AA200860002070BD000000300040F7
:101AC0002E2E2F447269766572732F53544D333224
:101AD000463178785F48414C5F4472697665722F71
:101AE0005372632F73746D3332663178785F686137
:101AF0006C5F697764672E630000000002488168AC
:101B00000278114481607047DC000020074810B55E
:101B1000016841F010010160032000F0F1F800209D
:101B200000F006F800F024F8002010BD002002406C
:101B300070B50D4D04464FF47A712878B1FBF0F082
:101B40000A490968B1FBF0F000F055FF48B9102CC4
:101B500007D200222146501E00F082F800206C605F
:101B600070BD012070BD0000DC000020E8000020F6
:101B7000214808B5816941F001018161816901F065
:101B800001010091C16941F08051C161C06900F05B
:101B900080500090032000F0B3F8002211466FF04F
:101BA0000B0000F05DF8002211466FF00A0000F013
:101BB00057F8002211466FF0090000F051F800229A
:101BC0001146501F00F04CF800221146101F00F083
:101BD00047F800221146901E00F042F800221146FC
:101BE000501E00F03DF80548416821F0E06141F0E9
:101BF0000071416008BD000000100240000001407B
:101C000010B5040003D5CE2106A002F01AFE04F0A0
:101C10001F01012088406109890001F1E021C1F81C
:101C2000000110BD2E2E2F447269766572732F53FA
:101C3000544D3332463178785F48414C5F44726985
:101C40007665722F5372632F73746D3332663178F9
:101C5000785F68616C5F636F727465782E630000F3
:101C600070B515460C460646102A03D3BA2114A0B7
:101C700002F0E7FD102C03D3BB2111A002F0E1FD1F
:101C80001E480068C0F30223C3F107022046042A5D
:101C900000D90422191D072901D2002300E0DB1E10
:101CA000012404FA02F1491E014099409C40641E3F
:101CB0002C4021433046BDE8704002F01AB90000C4
:101CC0002E2E2F447269766572732F53544D333222
:101CD000463178785F48414C5F4472697665722F6F
:101CE0005372632F73746D3332663178785F686135
:101CF0006C5F636F727465782E6300000CED00E01A
:101D000010B5044607280BD0062C09D0052C07D0A7
:101D1000042C05D0032C03D0A22108A002F091FDD1
:101D2000154904F0070208684FF6FF03184040EA1F
:101D30000220124A1043086010BD00002E2E2F44CE
:101D40007269766572732F53544D33324631787809
:101D50005F48414C5F4472697665722F5372632FFE
:101D600073746D3332663178785F68616C5F636F6E
:101D7000727465782E6300000CED00E00000FA0537
:101D80002DE9F84304460068504DC1070AD1810788
:101D90006FD4C0067ED47C214DA002F052FD207885
:101DA000C00763D0606860B1B0F5807F09D0B0F53E
:101DB000007F06D0B0F5407F03D0822144A002F01E
:101DC00040FDE8690026C00008D4E86940F0805072
:101DD000E861E869012600F0805000904B480168F6
:101DE000C90512D40168804641F480710160FFF793
:101DF00005FB074605E000BFFFF700FBC01B64289A
:101E000023D8D8F80000C005F6D5286A10F4407031
:101E100021D0A18801F4407181421CD0286A3C493C
:101E2000012220F440700A6000220A602862C00784
:101E300011D0FFF7E3FA074641F2883808E000BF07
:101E4000FFF7DCFAC11B414502D90320BDE8F88346
:101E5000286A8007F4D5286A616820F44070084336
:101E600028621EB1E86920F08050E8612078800780
:101E700016D5A06860B1B0F5804F09D0B0F5004F1D
:101E800006D0B0F5404F03D0C92111A002F0D9FC13
:101E9000686800E007E0A16820F4404008436860FB
:101EA0002078C0060FD5E068B0F5800F05D020B1CE
:101EB00040F2251106A002F0C4FC6868E16820F435
:101EC0008000084368600020C0E700000010024066
:101ED0002E2E2F447269766572732F53544D333210
:101EE000463178785F48414C5F4472697665722F5D
:101EF0005372632F73746D3332663178785F686123
:101F00006C5F7263635F65782E6300000070004051
:101F100040044242704700002DE9F0470E4605009C
:101F200004D140F22E3181A002F08BFC2868C10759
:101F30000AD1810708D4410706D4000704D440F22F
:101F40002F317AA002F07DFC46B1012E06D0022E80
:101F500004D04FF44C7175A002F073FCDFF80482DA
:101F6000D8F8000000F00700B0420CD2D8F80010FA
:101F700021F007013143C8F80010D8F8000000F044
:101F80000700B04272D12878774C80071CD5A8682A
:101F9000A0B1802812D0902810D0A0280ED0B02850
:101FA0000CD0C0280AD0D02808D0E02806D0F028CD
:101FB00004D040F249315DA002F043FC6068A9689A
:101FC00020F0F000084360602878C00753D06868AC
:101FD00068B1012821D0022822D04FF4547153A0B7
:101FE00002F02FFC6868012817D0022818D020685A
:101FF0008007002850DA6068696820F00300084311
:102000006060FFF7FBF96968074641F288300129F3
:1020100010D0022981461AD029E020688003E8E721
:1020200020688001E5E700BFFFF7E8F9C11B4945DB
:1020300001D918E081466068C0F381000128F3D11E
:1020400019E000BFFFF7DAF9C11B49450BD86068FA
:10205000C0F381000228F5D10DE000BFFFF7CEF9F3
:10206000C11B494503D90320BDE8F08714E060682F
:1020700010F00C0FF2D1D8F80010404601F0070123
:10208000B1420BD9016821F00701314301600068BA
:1020900000F00700B04201D00120E5E728784FF4B6
:1020A000806640074FF4A0674FF4C0684FF4E069C2
:1020B00014D5E86860B1B0420AD0B84208D04045B3
:1020C00006D0484504D04FF4697118A002F0B9FB5E
:1020D0006068E96820F4E0600843606028780007E1
:1020E00015D5286960B1B0420AD0B84208D0404541
:1020F00006D0484504D040F2AB310CA002F0A1FB61
:102100006068296920F4605040EAC100606000F016
:102110005DF86168154AC1F30311515CC840144968
:1021200008600020FFF704FD00209DE72E2E2F44BD
:102130007269766572732F53544D33324631787815
:102140005F48414C5F4472697665722F5372632F0A
:1021500073746D3332663178785F68616C5F726377
:10216000632E63000020024000100240AC550008BE
:10217000E800002001490120C86470470000424285
:102180000148006870470000E80000200448054945
:1021900000684968044AC1F30221515CC840704795
:1021A000E800002000100240BC5500080448054922
:1021B00000684968044AC1F3C221515CC8407047B5
:1021C000E800002000100240BC55000812A185B0B4
:1021D0000FC98DE80F0014A0144A006804905168DC
:1021E000134801F00C03042B10D0082B0ED1C1F3BF
:1021F0008343C9031DF803000AD5516804AAC1F33B
:102200004041515C0A4A5043B0FBF1F005B07047C1
:1022100008494843FAE700000203040506070809D5
:102220000A0B0C0D0E0F10100102000000100240EE
:1022300000127A0000093D0010B5044CA0680006A9
:1022400003D5FFF767FE8020A07210BD001002408A
:102250002DE9F84F040004D14FF4B871F4A002F056
:10226000F0FA4FF0010A4FF000084FF48039FE4EAB
:10227000FE4D206860B1C1070DD1810763D401070D
:102280007ED440077DD440F27111E9A002F0D9FA62
:102290002078C00754D060684FF4A02740B148456B
:1022A00006D0B84204D040F27711E1A002F0C9FA9A
:1022B0006868C0F38100012807D06868C0F3810016
:1022C000022809D16868C00306D52868800337D57D
:1022D0006068002876D033E06068484503D12868FC
:1022E00040F4803009E008B1B8420DD0286820F4ED
:1022F00080302860286820F480202860606890B1D1
:10230000FFF77CF807460AE0286840F48020286040
:10231000E5E700BFFFF772F8C01B642877D828688C
:102320008003F7D50CE0FFF769F8074605E000BF2A
:10233000FFF764F8C01B6428F0D828688003F7D43E
:10234000207880074ED5206930B1012804D040F2B2
:10235000AB11B7A002F075FA60691F2804D94FF4D9
:10236000D671B3A002F06DFA686810F00C0F0AD0B5
:102370006868C0F3810002280CD16868C00301E0DE
:1023800033E06CE006D42868800713D52069012863
:1023900018D10FE02069B0B1C6F800A0FFF72EF801
:1023A000074604E0FFF72AF8C01B0228B6D82868C1
:1023B0008007F7D52868616920F0F80040EAC1007D
:1023C00028600FE033E1C6F80080FFF717F80746F2
:1023D00005E000BFFFF712F8C01B02289ED828684E
:1023E0008007F7D42078000736D5A14FA06920B325
:1023F000012806D04FF4F6718DA002F022FAA069F0
:10240000D8B1C7F800A0FEF7F9FF074605E052E192
:10241000FEF7F4FFC01B02288ED8686A8007F7D544
:1024200094484FF4FA510068B0FBF1F0009000BFFF
:102430000098411E0091FAD20EE0C7F80080FEF726
:10244000DDFF074605E000BFFEF7D8FFC01B0228EE
:10245000ACD8686A8007F7D4207840076CD5E0686C
:10246000002740B1012806D0052804D040F21B21E6
:102470006FA002F0E6F9E869C00008D4E86940F00E
:102480008050E861E869012700F0805000907A48A8
:102490000168C90512D4016841F480710160FEF73A
:1024A000ADFF834606E000BFFEF7A8FFA0EB0B00E0
:1024B000642893D870480068C005F5D5E068012805
:1024C0000AD008B1052811D0286A20F0010028623E
:1024D000286A20F0040002E0286A40F00100286227
:1024E000E068A8B1FEF78AFF83460DE0286A40F055
:1024F00004002862F0E700BFFEF780FFA0EB0B01AD
:1025000041F28830814287D8286A8007F4D50EE0EE
:10251000FEF774FF834607E0FEF770FFA0EB0B01A8
:1025200041F28830814293D8286A8007F4D41FB1E1
:10253000E86920F08050E861E069002876D0012841
:1025400009D0022807D040F2B92139A002F079F968
:10255000E06900286AD06868C0F38100022866D06C
:10256000E069022805D0C6F86080FEF747FF044600
:10257000A4E0206A30B1484504D040F2C2212CA02A
:1025800002F05FF9606A70B3B0F5802F2BD0B0F520
:10259000002F28D0B0F5402F25D0B0F5801F22D0D5
:1025A000B0F5A01F1FD0B0F5C01F1CD0B0F5E01FC4
:1025B00019D0B0F5001F16D0B0F5101F13D0B0F52C
:1025C000201F10D0B0F5301F0DD0B0F5401F0AD03D
:1025D000B0F5501F07D0B0F5601F04D040F2C32102
:1025E00013A002F02EF9C6F86080FEF707FF074639
:1025F00005E000BFFEF702FFC01B02285BD8286879
:102600008001F7D4206A48450FD1A06838B1B0F5F1
:10261000003F04D040F2D92105A002F012F9686809
:10262000A16820F400300843686027E049E04AE0F0
:102630002E2E2F447269766572732F53544D3332A8
:10264000463178785F48414C5F4472697665722FF5
:102650005372632F73746D3332663178785F6861BB
:102660006C5F7263632E6300000042420010024000
:1026700080044242E800002000700040D4E90801D4
:102680000843696821F4741108436860C6F860A0C3
:10269000FEF7B4FE044604E0FEF7B0FE001B02287D
:1026A00009D828688001F7D50BE000BFFEF7A6FE29
:1026B000001B022802D90320BDE8F88F286880019A
:1026C000F4D40020F8E70120F6E7704738B5044657
:1026D0000068426881684B0605D4CB0703D05306D7
:1026E00001D5216C04E08B0707D5130605D5616C75
:1026F00001B02046BDE83040084711F0600F3FD0E0
:1027000093063DD54B060AD594F85130032B34D0AF
:10271000636D43F004036365C368836800938906AF
:1027200009D5616D41F00101616581680091016821
:1027300021F040010160606D002821D020684168CF
:1027400021F0E0014160012084F85100900718D089
:102750002068416821F0030141600C4DE06C18B124
:102760004563E06CFEF73EFAA06C002808D0456394
:10277000A06CBDE83840FEF735BAC16880680090AB
:1027800038BD2046FFF7A1FF38BD0000213F0008FB
:1027900070B5040066D04F492068884206D04E4983
:1027A000884203D06B214DA002F04BF8606830B135
:1027B000B0F5827F03D06C2148A002F042F8A068F7
:1027C00048B1B0F5806F06D0B0F5004F03D06D2151
:1027D00042A002F036F8E068B0F5006F04D018B1FE
:1027E0006E213EA002F02DF8206928B1022803D006
:1027F0006F213AA002F025F8606928B1012803D0C2
:10280000702136A002F01DF8A069B0F5007F07D056
:1028100030B1B0F5802F03D0712130A002F011F853
:10282000E06988B108280FD010280DD018280BD0E7
:10283000202809D0282807D0302805D0382803D0F0
:10284000722126A001F0FDFF206A28B1802803D064
:10285000732122A001F0F5FF0025A56294F8510034
:1028600010B104E0012070BD204600F055F80220B0
:1028700084F851002068016821F040010160D4E92A
:1028800001010843D4E90312114308436169084375
:10289000218B01F400710843E1690843216A084370
:1028A000A16A084321680860A069042101EA104078
:1028B000616A0843216848602168E06A086120680D
:1028C000C16921F40061C1616565012084F851008E
:1028D000002070BD00300140003800402E2E2F44F3
:1028E0007269766572732F53544D3332463178785E
:1028F0005F48414C5F4472697665722F5372632F53
:1029000073746D3332663178785F68616C5F7370B1
:10291000695F65782E63000010B50068184986B0BD
:1029200088422BD11748816941F4805181618069C7
:10293000154C00F480500490282000900220019053
:102940000320039069462046FEF762FB0021102019
:10295000CDE90001029169462046FEF759FB0B487C
:10296000416841F0E06141F0010141600022012134
:102970002320FFF775F92320FFF742F906B010BDB9
:102980000030014000100240000C014000000140F6
:1029900010B54FF0E024042809D020B140F2D9113D
:1029A00005A001F04EFF206920F0040002E020693C
:1029B00040F00400206110BD2E2E2F447269766510
:1029C00072732F53544D3332463178785F48414CFF
:1029D0005F4472697665722F5372632F73746D331F
:1029E00032663178785F68616C5F636F72746578A6
:1029F0002E630000704710B5401EB0F1807F01D3F8
:102A0000012010BD4FF0E02460610F21601701F03C
:102A100070FA0020A06107202061002010BD10B5D1
:102A2000FFF7E8FF10BD70477047000070B50D4616
:102A3000044600682A4988420DD0B0F1804F0AD080
:102A40002849884207D02849884204D04FF4C761FA
:102A500026A001F0F6FE286890B1102810D020289A
:102A60000ED030280CD040280AD0502808D060283A
:102A700006D0702804D040F239611CA001F0E1FEBC
:102A80006868802805D020B140F23A6117A001F0B3
:102A9000D8FE94F83C0001281FD0012084F83C00A7
:102AA000022184F83D1021684A6822F070024A60D1
:102AB00021684A682B681A434A6021688A6822F0B4
:102AC00080028A6021688A686B681A438A6084F889
:102AD0003D00002084F83C0070BD022070BD000065
:102AE000002C014000040040000800402E2E2F441E
:102AF0007269766572732F53544D3332463178784C
:102B00005F48414C5F4472697665722F5372632F40
:102B100073746D3332663178785F68616C5F7469A5
:102B20006D5F65782E63000010B5040036D025492E
:102B3000206888420CD0B0F1804F09D022498842E9
:102B400006D02249884203D0D52121A001F079FE88
:102B5000A06858B1102809D0202807D0402805D0F7
:102B6000602803D0D6211AA001F06BFE206948B17D
:102B7000B0F5807F06D0B0F5007F03D0D72114A038
:102B800001F05FFEA06928B1802803D0D82110A0F1
:102B900001F057FE94F83D0010B107E0012010BD90
:102BA000002084F83C00204600F02EF8022084F833
:102BB0003D00211D206801F04BFA012084F83D0002
:102BC000002010BD002C014000040040000800401F
:102BD0002E2E2F447269766572732F53544D333203
:102BE000463178785F48414C5F4472697665722F50
:102BF0005372632F73746D3332663178785F686116
:102C00006C5F74696D2E630008B500680B498842DB
:102C100012D10B48C16941F00401C161C0690022B1
:102C200000F00400009011461E20FFF719F8BDE8DF
:102C300008401E20FEF7E4BF08BD00000008004069
:102C40000010024010B5044600680E4988420DD0BD
:102C5000B0F1804F0AD00C49884207D00B49884216
:102C600004D040F25D110AA001F0EBFD2068C168BC
:102C700041F00101C1602068016841F0010101607B
:102C8000002010BD002C014000040040000800405E
:102C90002E2E2F447269766572732F53544D333242
:102CA000463178785F48414C5F4472697665722F8F
:102CB0005372632F73746D3332663178785F686155
:102CC0006C5F74696D2E630010B50446006813498B
:102CD00088420DD0B0F1804F0AD01149884207D008
:102CE0001049884204D040F271110FA001F0A9FDF3
:102CF0002068C16821F00101C1602068016A41F2C9
:102D00001112114207D1016A9210114203D10168D8
:102D100021F001010160002010BD0000002C0140E5
:102D200000040040000800402E2E2F447269766592
:102D300072732F53544D3332463178785F48414C8B
:102D40005F4472697665722F5372632F73746D33AB
:102D500032663178785F68616C5F74696D2E6300EC
:102D60002DE9F047044690F83C000D4601283CD080
:102D70004FF0010984F83C90022084F83D00286857
:102D80004FF480564FF40058B04215D0404513D050
:102D900090B1102810D020280ED030280CD0402818
:102DA0000AD0502808D0602806D0702804D040F6F9
:102DB0005971C5A001F045FD2068816821F07701B7
:102DC00021F47F418160CF492B68CD48CE4ACF1393
:102DD0004FF0804C502B7DD00FDC202B7BD007DCBC
:102DE000002B79D0102B78D13BE10220BDE8F08791
:102DF000302B73D0402BF6D1F7E0602B6FD04FF41F
:102E0000405A702B51D0B3423CD04345EBD123689C
:102E100083420AD0634508D08B4206D0934204D047
:102E200040F68871A8A001F00CFDA86850B1B0422E
:102E300008D0404506D0504504D040F68B71A2A082
:102E400001F0FFFC6868B84209D040B1022806D002
:102E50000A2804D040F68C719BA001F0F2FCE868CF
:102E60000F2804D940F68D7197A001F0EAFCD5E94E
:102E70000121EB68206801F021F92068816841F4A4
:102E8000804153E0236883420AD0634508D08B42D7
:102E900006D0934204D040F665718BA001F0D1FCBE
:102EA0002068816821F0070140E0236883420AD04E
:102EB000634508D08B4206D0934204D040F66E7131
:102EC00081A001F0BEFCA86888B1B0420FD0404597
:102ED0000DD005E02CE0D5E0B2E080E0E3E052E088
:102EE000504504D040F6717177A001F0AAFC6868E3
:102EF000B84209D040B1022806D00A2804D040F6D2
:102F0000727171A001F09DFCE8680F2804D940F6A9
:102F100073716DA001F095FCD5E90121EB68206883
:102F200001F0CCF82068816841F07701816056E0BB
:102F3000236883420AD0634508D08B4206D093426F
:102F400004D040F69C7160A001F07BFC6868B84238
:102F500009D040B1022806D00A2804D040F69F715B
:102F600059A001F06EFCE8680F2804D94FF47A618B
:102F700055A001F066FCEA686968206801F038FA3B
:102F80005021206829E0236883420AD0634508D095
:102F90008B4206D0934204D040F6AB714AA001F0B8
:102FA00050FC6868B84209D040B1022806D00A280F
:102FB00004D040F6AE7144A001F043FCE8680F284D
:102FC00004D940F6AF7140A001F03BFCEA686968A3
:102FD000206801F01EFA6021206801F079F884F879
:102FE0003D90002084F83C0000E7236883420AD02B
:102FF000634508D08B4206D0934204D040F6BA71A4
:1030000031A001F01EFC6868B84209D040B1022826
:1030100006D00A2804D040F6BD712BA001F011FCA7
:10302000E8680F2804D940F6BE7127A001F009FC1A
:10303000EA686968206801F0DBF940212068CCE784
:10304000236883420AD0634508D08B4206D093425E
:1030500004D040F6C9711CA001F0F3FB00212068E8
:10306000BBE7236883420AD0634508D08B4206D071
:10307000934204D040F6D17113A001F0E2FB10217D
:103080002068AAE7236883420AD0634508D08B42B0
:1030900006D0934204D040F6D9710BA001F0D1FBC9
:1030A0002021206899E7236883420AD0634508D02D
:1030B0008B4206D0934204D040F6E17102A001F0A9
:1030C000C0FB3021206888E72E2E2F447269766578
:1030D00072732F53544D3332463178785F48414CE8
:1030E0005F4472697665722F5372632F73746D3308
:1030F00032663178785F68616C5F74696D2E630049
:10310000002C01400004004000080040704770B5EA
:103110000446006801694FF00005C943890715D4CA
:10312000C168C943890711D4E91E016101202077D4
:10313000206880698007204602D0FFF7E7FF04E09F
:1031400000F0AAF8204600F027FA257720680169E8
:10315000C943490717D4C168C943490713D46FF05D
:1031600004010161022020772068806910F4407F0B
:10317000204602D0FFF7CAFF04E000F08DF8204699
:1031800000F00AFA257720680169C943090716D4B7
:10319000C168C943090712D46FF008010161042016
:1031A00020772068C0698007204602D0FFF7AEFF75
:1031B00004E000F071F8204600F0EEF92577206871
:1031C0000169C943C90617D4C168C943C90613D4E4
:1031D0006FF010010161082020772068C06910F4A9
:1031E000407F204602D0FFF791FF04E000F054F842
:1031F000204600F0D1F9257720680169C943C90745
:1032000008D1C168C943C90704D1891E016120469C
:1032100000F0C3F920680169C943090609D4C168EF
:10322000C943090605D46FF0800101612046FFF70C
:10323000FAFB20680169C943490609D4C168C9433A
:10324000490605D46FF040010161204600F0A6F95F
:1032500020680169C94389060BD4C168C94389063E
:1032600007D46FF0200101612046BDE87040FFF7F0
:10327000DBBB70BD1FB50068B0F1804F08D10820DE
:10328000009002200190039069460248FDF7C0FEBD
:103290001FBD000000080140704700002DE9F0410B
:1032A000044690F83C0016460D4601283CD0012704
:1032B00084F83C7066B1042E0AD0082E08D00C2E7B
:1032C00006D0182E04D040F61F415FA001F0B9FAD5
:1032D0002868602806D0702804D04FF442615AA0B4
:1032E00001F0AFFAA86830B1022804D040F62141BD
:1032F00055A001F0A6FA286930B1042804D040F6A0
:10330000224151A001F09DFA022084F83D005C4862
:103310005C495D4A4FF0804C4EB1042E28D0082EF7
:1033200049D00C2E46D167E00220BDE8F081236829
:1033300083420AD0634508D08B4206D0934204D022
:1033400040F62A4140A001F07CFA2946206800F0AE
:10335000C7FE2068816941F00801816120688169A8
:1033600021F004018161206881692A69114320E00C
:10337000236883420AD0634508D08B4206D093422B
:1033800004D040F6394130A001F05BFA29462068AC
:1033900000F00CFF2068816941F4006181612068C0
:1033A000816921F480618161206881692A6941EA2B
:1033B0000221816142E0236883420AD0634508D03C
:1033C0008B4206D0934204D040F648411EA001F043
:1033D00038FA2946206800F053FF2068C16941F09F
:1033E0000801C1612068C16921F00401C161206840
:1033F000C1692A69114320E0236883420AD06345EA
:1034000008D08B4206D0934204D040F657410EA01C
:1034100001F017FA2946206800F09CFF2068C16976
:1034200041F40061C1612068C16921F48061C1611A
:103430002068C1692A6941EA0221C16184F83D70AE
:10344000002084F83C0070E72E2E2F4472697665C8
:1034500072732F53544D3332463178785F48414C64
:103460005F4472697665722F5372632F73746D3384
:1034700032663178785F68616C5F74696D2E6300C5
:10348000002C0140000400400008004010B504007A
:103490003AD02749206888420DD0B0F1804F0AD039
:1034A0002449884207D02449884204D040F2E231BE
:1034B00022A001F0C6F9A06860B110280AD0202827
:1034C00008D0402806D0602804D040F2E3311BA089
:1034D00001F0B7F9206950B1B0F5807F07D0B0F5A1
:1034E000007F04D04FF4797114A001F0AAF9A0690B
:1034F00030B1802804D040F2E53110A001F0A1F9EC
:1035000094F83D0010B107E0012010BD002084F8C0
:103510003C00204600F02EF8022084F83D00211DDA
:10352000206800F095FD012084F83D00002010BDCA
:10353000002C014000040040000800402E2E2F44C3
:103540007269766572732F53544D333246317878F1
:103550005F48414C5F4472697665722F5372632FE6
:1035600073746D3332663178785F68616C5F74694B
:103570006D2E630008B50068B0F1804F08D1054892
:10358000C16941F00101C161C06900F00100009012
:1035900008BD000000100240704770477047704738
:1035A00070B5026804461068D168536910F00F0FB7
:1035B00050D003F0010501F4907635435DD0C20789
:1035C00005D0CA0503D5E26B42F00102E26342076F
:1035D00005D5DA0703D0E26B42F00202E26382070C
:1035E00005D5DA0703D0E26B42F00402E26302077A
:1035F00005D5DA0703D0E26B42F00802E263E26B22
:10360000002A33D0800604D5880602D5204600F073
:1036100028FF20684069E16BC0F38010090700D4DF
:1036200028B3204600F00FFF2068416949061AD5EB
:10363000416921F040014161606BA0B11B494163C8
:10364000606BFDF7CFFA002810D0606B416BBDE8CE
:1036500070400847830610D58B060ED52046BDE87E
:10366000704000F0FEBE2046FFF799FF70BD204677
:10367000FFF795FF0020E06370BD030606D50B063B
:1036800004D52046BDE8704001F03AB84006F3D5B5
:103690004806F1D5D168204621F04001D1602021B3
:1036A00084F8391000F020F970BD0000374400089C
:1036B00070B5040020D0A06930490028304A314B51
:1036C00020681BD088420AD0904208D0984206D089
:1036D00040F20F112CA001F0B4F8A069C8B1A069A4
:1036E000B0F5807F15D0B0F5007F12D0B0F5407FE7
:1036F0000FD04FF4887109E0012070BD884208D0D6
:10370000904206D0984204D04FF48A711EA001F076
:1037100098F8A06838B1B0F5805F04D04FF48B7191
:1037200019A001F08EF894F83900002520B984F82A
:103730003850204600F046F8242084F839002068EC
:10374000C16821F40051C160204600F0D5FE206818
:10375000016921F4904101612068416921F02A0149
:1037600041612068C16841F40051C160E5632020D7
:1037700084F8390084F83A00002070BD0038014018
:1037800000440040004800402E2E2F4472697665A8
:1037900072732F53544D3332463178785F48414C21
:1037A0005F4472697665722F5372632F73746D3341
:1037B00032663178785F68616C5F756172742E6310
:1037C0000000000010B50068154986B0884225D178
:1037D0001448816941F4804181618069124C00F490
:1037E000804004904FF4007000900220019003206C
:1037F000039069462046FDF70BFC00212015CDE91A
:103800000001029169462046FDF702FC00221146A4
:103810002520FEF725FA2520FEF7F2F906B010BDA7
:1038200000380140001002400008014070472DE9B7
:10383000F843044690F839001F4616460D462028E6
:1038400050D1A5B19EB194F8380001284AD001208A
:1038500084F838004FF00008C4F83C80212084F838
:103860003900FDF7CBFDA6848146E68426E00120E1
:10387000BDE8F883E08C401EE084A0684B46B0F5BC
:10388000805F4FF000024FF080012046009703D088
:1038900000F067FFE8B90DE000F063FFC8B92888C1
:1038A0002168C0F308004860206908B16D1C05E07C
:1038B000AD1C03E0216815F8010B4860E08C00287E
:1038C000D8D14B46002240212046009700F049FF06
:1038D00008B10320CCE7202084F8390084F8388030
:1038E0000020C5E70220C3E77047FEE701684A6988
:1038F000D24352050CD46FF480624A610421016402
:10390000002140F8301F20224273017301207047CC
:1039100000207047F8B50446C06A1E460D4617469B
:10392000042807D0012805D010F5803F02D0206B75
:10393000122804D12068016841F4807101601346A7
:1039400000224FF001112046009600F0CCF8A0B9FB
:103950002069B0F5804F12D00620216800EAD5100A
:1039600040F0F000086133463A460E49204600F028
:10397000EBF838B1206C042811D00320F8BD05F015
:10398000FE0000E0E8B221680861064933463A4685
:10399000891F204600F0D8F80028EBD1F8BD01209F
:1039A000F8BD0000080001002DE9F84F044600684A
:1039B00089460B9D01689846174641F48061016075
:1039C0002068016841F48071016000954FF0011A90
:1039D0000022514620460A9B00F085F8F0BB216882
:1039E00009F0FE0008610AF1010B2B4659462046FA
:1039F0000A9A00F0A9F818B1206C042812D03AE015
:103A000020684169806900902A4620460A9900F0A2
:103A100010F950B1206C04282DD12068016841F4C0
:103A2000007101600120BDE8F88FFEB2B8F1010F0E
:103A300009D02168380A08612A4620460A9900F010
:103A4000F8F80028E6D1206806612A4620460A993F
:103A500000F0EFF80028DDD1206800E00BE00168FD
:103A600041F48071016000950022514620460A9B76
:103A700000F039F808B10320D5E7216809F0FF000C
:103A800040F0010008612B46594620460A9A00F092
:103A90005BF80028B0D1C6E770B516460D4604465F
:103AA0001AE02046FFF722FF08B1012070BD681C14
:103AB00012D025B1FDF7A2FC801BA8420CD954F806
:103AC000400F40F0200044F8100900202060202121
:103AD00061732073032070BD20684069C0434007B4
:103AE000DFD4002070BD2DE9F0471E4690460D46FC
:103AF0000446C1F30747DDF8209012E0701C10D097
:103B00002EB1FDF77BFCA0EB0900B04209D90020E3
:103B100044F8300F20216173A07320730320BDE8A7
:103B2000F0872068012F0AD0806925EA0000000490
:103B3000000C06D000214145E0D00020EFE74069AD
:103B4000F3E70121F7E700002DE9F0479A46914697
:103B50000D46044600264FF02008C1F307472AE02F
:103B600020684069C043400512D42068016841F4D0
:103B70000071016021686FF4806048610420206456
:103B8000266384F83D8084F83C600120BDE8F0871E
:103B9000B9F1FF3F0FD0B9F1000F05D0FDF72EFCB2
:103BA000A0EB0A01494506D944F8306F84F80D802E
:103BB00026730320EAE72068012F07D0D0F8180009
:103BC00025EA00000004000CE0D0C9E74069F7E7EF
:103BD0002DE9F041002590460E460446202721E0BD
:103BE0004069C043C0060CD421686FF010004861E2
:103BF0002564256384F83D7084F83C500120BDE8BD
:103C0000F0812EB1FDF7FAFBA0EB0800B04209D914
:103C100054F8400F40F0200044F804096770257004
:103C20000320ECE720684169C9434906D8D4002045
:103C3000E5E770B516460D4604461AE02046FFF744
:103C400055FE08B1012070BD681C12D025B1FDF7EA
:103C5000D5FB801BA8420CD954F8400F40F020003F
:103C600044F8100900202060202161732073032094
:103C700070BD20684069C0430006DFD4002070BDDD
:103C8000FEB528482649012601608915C0E90216BB
:103C90000021416106244FF460220461C261416049
:103CA000FCF790FD00B1FEE70425CDE900560326A0
:103CB00069461C480296FCF7BFFB00B1FEE70527EA
:103CC0000220CDE9007069461648FCF7B5FB00B14B
:103CD000FEE7CDE9004669461248FCF7ADFB00B1AE
:103CE000FEE70726CDE9006569460E48FCF7A4FB10
:103CF00000B1FEE71020CDE90007694602960948A9
:103D0000FCF79AFB00B1FEE71120CDE900046946FB
:103D10000448FCF791FB002800D0FEE7FEBD000040
:103D2000002401400C020020F0B5234885B08169D1
:103D300041F020018161816901F0200104918169D4
:103D400041F004018161816901F0040104918169FC
:103D500041F0080181618069184F00F0080004906B
:103D6000002242F202413846FDF712FB012296037F
:103D700031463846FDF70CFB02240020CDE9020451
:103D80000125CDE9004569463846FDF741F94FF474
:103D90001050CDE90005CDE9025469463846FDF7DB
:103DA00037F90096CDE90154694638460394FDF78A
:103DB0002FF905B0F0BD000000100240000C0140DA
:103DC0000B4810B5094901600A49416000214FF4D0
:103DD00080428160C0E9031241618161C161016279
:103DE000FDF712FB002800D0FEE710BD0054004094
:103DF0003C020020A08601000E4810B50C4901606D
:103E00004FF48271416000218160C1604FF4007203
:103E10000161C0E905121022C0E9072141628162F7
:103E20000A21C162FEF7B4FC002800D0FEE710BDF5
:103E3000003001409C02002010B516488AB04FF0B7
:103E40008041016048210024C0E901144FF4FA7157
:103E5000C0E903148461FFF719FB00B1FEE7079482
:103E600007A90C480894FEF7E1FD00B1FEE76020C9
:103E7000CDE90004022002900C2269460494054812
:103E8000FFF70CFA00B1FEE70248FFF7F3F90AB0BA
:103E900010BD0000F402002010B5134886B011498F
:103EA000016040F60F610024C0E901140121C0E95E
:103EB00003148461FEF738FE00B1FEE74FF4805032
:103EC000009069460848FEF74BFF00B1FEE70494F6
:103ED00004A905480594FEF7A9FD002800D0FEE7D7
:103EE00006B010BD0008004034030020FEE7FEF7D6
:103EF000A3B90907090E002806DA00F00F0000F147
:103F0000E02080F8141D704700F1E02080F80014D4
:103F1000704770470148FEF7D9BB00009C020020A3
:103F200010B5406A0021C187C186FEF7CEFB10BDE7
:103F3000704710B5FDF7E2FDBDE81040FEF76FBD1C
:103F400030B593B00920012100904FF48030002556
:103F500004910691CDE901050224CDE907404FF413
:103F6000E01009906846FEF773F900B1FEE70AA970
:103F70000F2081E831004FF48060CDE90D0502216A
:103F80000AA8FDF7C9FF00B1FEE74FF40040119009
:103F90000F940FA8FDF7F4FE00B1FEE7FEF7EAF874
:103FA000FEF7EEF84FF47A71B0FBF1F0FEF723FD67
:103FB0000420FEF7EDFC00221146501EFDF750FED6
:103FC00013B030BD0D48016841F001010160416846
:103FD0000B4A1140416001680A4A114001600168C2
:103FE00021F480210160416821F4FE0141604FF419
:103FF0001F0181600449C00308607047001002403F
:104000000000FFF8FFFFF6FE08ED00E00D4810B5D8
:1040100000680169C943C9070FD1C168C943C9070D
:104020000BD1891E016108480188491E0904090C49
:10403000018002D1054800688047BDE81040014872
:10404000FFF765B834030020B000002028000020EE
:10405000F0B50268164B174C174D4FF08047984249
:1040600005D0B84203D0A04201D0A84203D122F02B
:1040700070064A683243984205D0B84203D0A04245
:1040800001D0A84203D122F44074CA68224322F02E
:1040900080044A69224302608A68C2620A688262B6
:1040A000984201D10969016301214161F0BD00001D
:1040B000002C0140000400400008004010B5846856
:1040C00042EA032224F47F440A432243826010BD63
:1040D000826822F070020A4342F007018160704753
:1040E0002DE9F0410446006A0D4620F001002062EF
:1040F000206A6768A169AE6820F0020021F07302AF
:10410000064329681A4841EA0208844228D1E8682F
:1041100030B1082804D041F2272116A000F091FB0D
:10412000E86826F00801084320F00406A869B0F505
:10413000007F05D020B141F234210EA000F081FBB8
:104140006869B0F5807F05D020B141F2352109A022
:1041500000F077FB27F440716869AF6908430743B3
:104160006760C4F81880686860632662BDE8F08103
:10417000002C01402E2E2F447269766572732F53E6
:10418000544D3332463178785F48414C5F44726910
:104190007665722F5372632F73746D333266317884
:1041A000785F68616C5F74696D2E63002DE9F04182
:1041B0000446006A0D4620F010002062206A6768FD
:1041C000A1692A6821F4E64141EA0228A96820F0A1
:1041D000200040EA01161B4884422BD1E86830B128
:1041E000082804D041F2712117A000F02AFBE968E9
:1041F00026F0800040EA011020F04006A869B0F5E2
:10420000007F05D020B141F27F210FA000F019FB03
:104210006869B0F5807F05D020B14FF494510AA0B1
:1042200000F00FFB696927F4406040EA8100A9694A
:1042300040EA81076760C4F818806868A063266256
:10424000BDE8F081002C01402E2E2F447269766566
:1042500072732F53544D3332463178785F48414C56
:104260005F4472697665722F5372632F73746D3376
:1042700032663178785F68616C5F74696D2E6300B7
:104280002DE9F0410446006A0D4620F4807020625A
:10429000206A6768E16920F4007021F073022968E0
:1042A00041EA0208A96840EA01261B4884422BD152
:1042B000E86830B1082804D041F2BC2117A000F012
:1042C000C0FAE96826F4006040EA012020F4806624
:1042D000A869B0F5007F05D020B141F2C9210FA037
:1042E00000F0AFFA6869B0F5807F05D020B141F2E7
:1042F000CA210AA000F0A5FA696927F4405040EAF3
:104300000110A96940EA01176760C4F81C80686859
:10431000E0632662BDE8F081002C01402E2E2F4480
:104320007269766572732F53544D33324631787803
:104330005F48414C5F4472697665722F5372632FF8
:1043400073746D3332663178785F68616C5F74695D
:104350006D2E63002DE9F0410446006A0D4620F4FD
:1043600080502062206A6668E1692A6821F4E6418B
:1043700041EA0228A96820F4005040EA01370D48BC
:1043800084420ED16869B0F5807F05D020B141F23A
:10439000073109A000F055FA696926F4804040EA27
:1043A00081166660C4F81C80686820642762BDE8D6
:1043B000F0810000002C01402E2E2F44726976659A
:1043C00072732F53544D3332463178785F48414CE5
:1043D0005F4472697665722F5372632F73746D3305
:1043E00032663178785F68616C5F74696D2E630046
:1043F00010B5036A046A24F001040462846924F09D
:10440000F00444EA021423F00A020A4384610262BF
:1044100010BD10B5036A23F0100303628369046AB8
:1044200023F4704343EA023224F0A00343EA01116B
:104430008261016210BD10B5406A0021C185C1844E
:10444000FFF7ADF810BD0168CA6822F49072CA6027
:1044500001684A6922F001024A61202180F83A107D
:10446000704710B590F83A10222901D0022010BDF3
:104470008168B1F5805F11D00169002901681FD002
:10448000496801F07F03816A4A1C82620B70C18D0A
:10449000491E0904090CC18518D02BE00269816A04
:1044A000002A0268526805D0D2B20A80816A491C8B
:1044B0008162ECE7C2F308020A80816A891CF7E78F
:1044C0004A68816A4B1C83620A70E0E70168CA6827
:1044D00022F02002CA600168CA6822F48072CA60B1
:1044E00001684A6922F001024A61202180F83A10ED
:1044F000FFF79CF9002010BD2DE9F041044640680B
:104500006E49884204D340F6A7116DA000F099F9D6
:10451000E06838B1B0F5005F04D040F6A81168A09B
:1045200000F08FF9206950B1B0F5806F07D0B0F579
:10453000C06F04D040F6A91161A000F082F9606953
:104540004FF6F371084200D120B940F6AA115CA0E1
:1045500000F077F920680169E26821F440511143C5
:1045600001612169A0680843616908432168CA683C
:1045700041F20C639A430243CA6020684169A26910
:1045800021F44071114341615C4920686425322661
:1045900088423CD1FDF70AFE00EBC00101EB0010A0
:1045A00061688900B0FBF1F7FDF700FE00EBC00188
:1045B00001EB00106168B0468900B0FBF1F0B0FB80
:1045C000F5F06FF01801484307EB800106EB01108E
:1045D000B0FBF5F000F0F006FDF7E8FD00EBC001E0
:1045E00001EB001061688900B0FBF1F0B0FBF5F061
:1045F00006EB0016FDF7DAFD00EBC00101EB001041
:1046000061688900B0FBF1F7FDF7D0FD3BE0FDF7F5
:10461000BDFD00EBC00101EB001061688900B0FB3B
:10462000F1F7FDF7B3FD00EBC00101EB001061688D
:10463000B0468900B0FBF1F0B0FBF5F06FF0180167
:10464000484307EB800106EB0110B0FBF5F000F0EA
:10465000F006FDF79BFD00EBC00101EB0010616867
:104660008900B0FBF1F0B0FBF5F006EB0016FDF7AA
:104670008DFD00EBC00101EB001061688900B0FB0B
:10468000F1F7FDF783FD00EBC00101EB001061685D
:104690008900B0FBF1F0B0FBF5F06FF01801484372
:1046A00007EB800108EB0110B0FBF5F0216800F08A
:1046B0000F0030448860BDE8F081000021AA44006A
:1046C0002E2E2F447269766572732F53544D3332F8
:1046D000463178785F48414C5F4472697665722F45
:1046E0005372632F73746D3332663178785F68610B
:1046F0006C5F756172742E63000000000038014029
:1047000090F83910212901D0022070478168B1F555
:10471000805F016A0BD04A1C02620268097851600E
:10472000C18C491E0904090CC1840ED017E0098808
:104730000268C1F30801516001690029016A02D0D1
:10474000491C0162ECE7891CFBE70168CA6822F09A
:104750008002CA600068C16841F04001C160002069
:1047600070472DE9F041984617460E460446069DCF
:104770001DE0681C1BD02DB1FCF740FEA0EB08002B
:10478000A84214D92068C16821F4D071C1602068A2
:10479000416921F001014161202084F8390084F849
:1047A0003A00002084F838000320BDE8F08120683A
:1047B000006836EA000004D00020B842D9D00020BA
:1047C000F3E70120F9E7000038B5124C20680168D2
:1047D000C1F34012C16801F0200142B139B10E4865
:1047E00000688047206801684068009038BD016813
:1047F000C943090608D4C068000605D50748006803
:1048000001B0BDE830400047BDE838400148FEF740
:10481000C7BE0000740300202000002024000020F8
:10482000FEE7FEE702E008C8121F08C1002AFAD11D
:1048300070477047002001E001C1121F002AFBD120
:104840007047704770B5064D00242878012802D0C3
:104850000624204670BD2869804700202870F8E7AC
:104860000000002070B50C460988002505292FD1CD
:10487000417840F2CF760A0281781143C278491C10
:104880001302027989B21A43531EB34220D2002385
:104890002380012300F8013B2688761C26805607DA
:1048A00003D003EBD203DEB201E0C2F3C70600F887
:1048B000016B23885B1C2380002300F0D3FA18B11E
:1048C00000F06CFC054604E020883044208000E0C5
:1048D0000325284670BD70B50C46098800250529BA
:1048E0002FD1417840F2CF760A0281781143C27805
:1048F000491C1302027989B21A43531EB34220D2D3
:1049000000232380022300F8013B23885B1C2380C3
:10491000530704D0012303EBD203DEB201E0C2F35C
:10492000C70600F8016B23885B1C238000F09CFA0B
:1049300018B100F033FC054604E0208830442080A4
:1049400000E00325284670BD70B50C460988002696
:10495000052925D1417805790A0281781143491C3E
:104960006A1E89B27C2A1BD800222280032200F80A
:10497000012B22880023521C22806A0000F8012BA0
:104980002288521C22802A4600F070FA18B100F0EA
:1049900005FC064605E0208800EB4500208000E08D
:1049A0000326304670BD70B50C46098800260529DF
:1049B00027D1417805790A0281781143C278491CD0
:1049C00045EA02256A1E89B27C2A1AD20022228078
:1049D000042200F8012B2288521C22806A0000F871
:1049E000012B2288521C22802A4600F041FA18B17D
:1049F00000F0D4FB064605E0208800EB450020804F
:104A000000E00326304670BD2DE9F04104460888D9
:104A100000270D460A2842D3607826790102A07843
:104A2000227A0843401C1FFA80F8E07846EA002604
:104A30006079731E0102A0790843401C81B2E079BD
:104A40007C2B42EA0022607A28D83AB3792A25D80A
:104A5000B0EB420F22D1012304F10A0000F006FA64
:104A600098B900212980172121702988601C491CD0
:104A70002980710000F8011B29880023491C298026
:104A80003246414600F0F2F918B100F087FB0746C4
:104A900005E0288800EB4600288000E00327384620
:104AA000BDE8F08170B5064C0D4606492288401CD1
:104AB000FBF738FB2088401C2880002070BD0000D8
:104AC000C0000020EC01002038B509880024052929
:104AD0000BD141780A0281781143491C027989B2CD
:104AE0001AB9C278FF2A03D012B10324204638BD78
:104AF00000228DF80120C078FF280CD08DF800200E
:104B000001231A46684600F0ADF90028EED000F007
:104B100045FB0446EAE701208DF80000F0E710B5F8
:104B200009880024052902D00324204610BD4178BD
:104B300001230A028178C01C1143491C89B21A461C
:104B400000F094F90028F0D000F028FB0446ECE7D0
:104B50002DE9F0410D4609880024052926D9417820
:104B600043790A0281781143491C8EB2C1780279D7
:104B700042EA0122510704D0012101EBD201C9B25E
:104B800001E0C2F3C701571EB7F5F66F0ED2994286
:104B90000CD101233146801D00F064F918B100F0FA
:104BA000FDFA044603E00520288000E003242046A7
:104BB000BDE8F08170B50D460988002406291DD393
:104BC00041780A0281781143C278491C13020279A4
:104BD00089B21A434379561E772E0FD85606360EE1
:104BE0009E420BD10123801D00F040F918B100F066
:104BF000D5FA044603E00520288000E0032420467F
:104C000070BD00002DE9F0411D46069B1746064683
:104C100029B1F72903D8134C084621710EB102259A
:104C20001BE011492161114961611149E16011499C
:104C3000A1610021E16110492162104961621049BE
:104C4000A1622A46394600F077F8050005D100F048
:104C5000FDFA28B16671012020702846BDE8F08178
:104C60000325FAE700000020314E0008514E0008ED
:104C7000CD4D0008794D0008A95200085153000895
:104C80001153000838B52B4C207808B1062038BDE8
:104C9000684600F0CDFA01284AD19DF80000E8B33B
:104CA000012802D0022843D10FE0224AA369921DB5
:104CB000911CC81F984788BB60782179884200D032
:104CC00060BB022000F0CAFA32E0A0680121194B53
:104CD0000278A270E170002113F12C0313F8315017
:104CE00065B1954207D103EBC1014A681149891D9D
:104CF0009047E07002E0491C1029EFDB607868B152
:104D0000E07880B10021E180A17841F08002A168C3
:104D10000A70E288521C92B2E28000E008E08854F7
:104D2000E088401CE080D4E90213E28820799847AB
:104D3000002038BD0000002070B51546084600244C
:104D400072B60822294600F099FA01280DD1B5F56E
:104D5000964F01D9232003E006496800B1FBF0F02B
:104D600080B200F09BFA012800D0032462B62046EE
:104D700070BD0000A07F17002DE9F041164688465F
:104D80000746002572B60F4CA088FF2801D9AFF363
:104D90000080A088042804D3A1880B4800F00AFAF8
:104DA00020B1052562B62846BDE8F08106480078A6
:104DB0003870A088C01E30800348401CC8F800002E
:104DC000F0E70000B4000020EC00002070B50346BE
:104DD000002572B6144C6078012803D0052562B610
:104DE000284670BD491E0126A160084666800B70EA
:104DF000618811446180618800F0DCF961880B4AA8
:104E00005318491C61801870010A60880244401CD4
:104E1000608011706088401C608026700121002035
:104E200000F0DEF9DBE70000B4000020EC00002019
:104E300010B572B60020054948700146012000F007
:104E4000CFF900F0EBF962B610BD0000B40000200D
:104E500010B572B60021084600F0C2F900F0D8F98A
:104E600062B610BD012070470120704701207047D5
:104E700070B5114D0024E1B18B18212B19D80F4BBF
:104E80001B88C91A0E4B0BE033F81160521E360A0C
:104E900000F8016B13F8116000F8016B92B2491C25
:104EA000002AF1D14FF400512846FCF745FA20467C
:104EB00070BD4FF48041F7E7000C0140C2000020B4
:104EC000CC0300208EB0FCF721FEFFF739F8FEF787
:104ED0002BFF4E48416941F00101416140690022C8
:104EE00000F00100009011460B20FCF7B9FE0B20EA
:104EF000FCF786FE474846494FF4165501600024EA
:104F0000C0E901540C21C460C0E904418461C4615A
:104F1000FEF7CEFB00B1FEE7FEF78EFFFEF7B0FE18
:104F2000FEF76AFFFEF74CFFFEF7B6FF39483A4E30
:104F3000E4380621C0E9006140F627118160FCF7E2
:104F400071FD00B1FEE700F0EBF82B4601220421D1
:104F500000200094FFF756FEFFF774FC2D4906224F
:104F60009831A1F50070FBF793FD4AF6AA27376048
:104F70004CF6CC403060274D9835A5F1400404F143
:104F80000A000B90801E0A90801D0990801E0890D8
:104F9000801D0790801E0690801D0590801D04F1E5
:104FA000140B04F11E0A04F11A0904F11808029006
:104FB00018482A88A11C5830FBF700FA6A88A11DFE
:104FC000201DFBF7FBF9AA88DDE90A01FBF7F6F9DA
:104FD000EA88DDE90801FBF7F1F92A89DDE9060134
:104FE000FBF7ECF96A8958460599FBF7E7F9534650
:104FF00049464046029AFBF703FA00F02DF800F00C
:1050000069F8FFF73FFE3760D2E70000001002406A
:1050100000380140740300200030004010B5062124
:105020003B2000F095F80B484FF6FC63027841787E
:1050300003EB02220A44A0F10C010A80C2788378B3
:1050400002EB03224A804279007902EB002088803B
:1050500010BD0000D600002070B5FFF7DFFF0E4C3A
:10506000B4F90000FBF7BAF86FF00C063146FBF715
:10507000A9F80A4D2860B4F90200FBF7AFF83146F1
:10508000FBF7A0F86860B4F90400FBF7A7F8314615
:10509000FBF798F8A86070BDCA000020C00300208C
:1050A00010B50621432000F053F8094841780278F2
:1050B00001EB0222A0F112010A80C278837802EB90
:1050C00003224A804279007902EB0020888010BDDB
:1050D000D600002070B5FFF7E3FF0E4CB4F90000D6
:1050E000FBF77CF80C4E3146FBF72EF80B4D286091
:1050F000B4F90200FBF772F83146FBF725F8686057
:10510000B4F90400FBF76AF83146FBF71DF8A86014
:1051100070BD0000C4000020A6E96A44B40300206A
:1051200010B500216B2000F029F80321192000F0B0
:1051300025F806211A2000F021F810211B2000F08C
:105140001DF81021BDE810401C2000F017B8000029
:105150000EB5084A074B10709B1DCDE900314FF486
:105160007A72029202460123D0210348FCF704FB25
:105170000EBD0000D00000203C02002008B5054A0A
:1051800002231070517001200090D0210248FCF7DA
:1051900057FA08BDD00000203C020020002804D0AF
:1051A000012803D0072803D004207047022070474D
:1051B0000620704770B5094DFF231A4605F5807625
:1051C00006E000BF10F8014B54402A5D5A40335DA1
:1051D000491E89B2F6D242EA032070BDAC530008E2
:1051E0000A4B00281A68D06802D040F0200001E085
:1051F00020F02000D06018680029C16802D041F07A
:10520000800101E021F08001C1607047740300203B
:105210000148FDF759BD0000340300200248018811
:1052200041800248FDF70EBDAE000020340300208F
:105230000549024600204B78002B04D008781070F6
:105240000020487001207047AC0000200249002077
:105250004870012070470000AC0000200249012284
:105260004A70087010467047AC0000200249096877
:1052700049680170012070477403002001207047C5
:1052800001B50A23012269460348FEF7D0FA08B1A6
:10529000002008BD012008BD7403002001490880DA
:1052A00001207047AE00002038B5174C002520784B
:1052B00008B1AFF300806846FFF7D8FF607830B1DF
:1052C000124A012807D0022810D0032801D1FFF785
:1052D000A5FF284638BD0020A0809DF80000A188C9
:1052E0000A44491CA180107002200BE0A088FF280E
:1052F00007D89DF80010A0880244401CA0801170BF
:10530000E5E703206070E2E7B4000020EC00002035
:1053100070B50E4D0024687870B102280BD00328B8
:105320000DD0687858B16878022808D068780328CA
:1053300005D0AFF300800120FFF790FF0446FFF790
:1053400067FF01206870204670BD0000B400002097
:1053500070B5154C00256078012801D0AFF30080AE
:10536000207810B101281CD104E000210120FFF7B2
:1053700037FF16E0608850B1A0680078FFF780FF23
:10538000A068401CA0606088401E608009E0032087
:10539000FFF764FF054600210120FFF721FF0020F1
:1053A0002070284670BD0000B400002000C181407C
:1053B00001C0804101C0804100C1814001C08041E5
:1053C00000C1814000C1814001C0804101C08041D5
:1053D00000C1814000C1814001C0804100C18140C5
:1053E00001C0804101C0804100C1814001C08041B5
:1053F00000C1814000C1814001C0804100C18140A5
:1054000001C0804101C0804100C1814000C1814094
:1054100001C0804101C0804100C1814001C0804184
:1054200000C1814000C1814001C0804101C0804174
:1054300000C1814000C1814001C0804100C1814064
:1054400001C0804101C0804100C1814000C1814054
:1054500001C0804101C0804100C1814001C0804144
:1054600000C1814000C1814001C0804100C1814034
:1054700001C0804101C0804100C1814001C0804124
:1054800000C1814000C1814001C0804101C0804114
:1054900000C1814000C1814001C0804100C1814004
:1054A00001C0804101C0804100C1814000C0C101F4
:1054B000C30302C2C60607C705C5C404CC0C0DCD84
:1054C0000FCFCE0E0ACACB0BC90908C8D81819D9F4
:1054D0001BDBDA1A1EDEDF1FDD1D1CDC14D4D51524
:1054E000D71716D6D21213D311D1D010F03031F114
:1054F00033F3F23236F6F737F53534F43CFCFD3D44
:10550000FF3F3EFEFA3A3BFB39F9F83828E8E92933
:10551000EB2B2AEAEE2E2FEF2DEDEC2CE42425E5E3
:1055200027E7E62622E2E323E12120E0A06061A153
:1055300063A3A26266A6A767A56564A46CACAD6D03
:10554000AF6F6EAEAA6A6BAB69A9A86878B8B97973
:10555000BB7B7ABABE7E7FBF7DBDBC7CB47475B5A3
:1055600077B7B67672B2B373B17170B05090915193
:105570009353529296565797559594549C5C5D9DC3
:105580005F9F9E5E5A9A9B5B9959589888484989B3
:105590004B8B8A4A4E8E8F4F8D4D4C8C4484854563
:1055A0008747468682424383418180400000000055
:1055B00000000000010203040607080900000000C3
:1055C00001020304E455000800000020EC00000084
:1055D00024480008D0560008EC00002074070000A2
:1055E0003448000802000000000000000000000035
:1055F00000000000000000000000000000000000AB
:10560000000000000000000000000000000000009A
:1056100011000000A54A000804000000A749000886
:10562000030000004949000810000000B54B0008C5
:10563000060000001F4B000817000000094A000880
:10564000010000006548000805000000C94A000884
:105650000F000000514B000802000000D74800086E
:10566000000000000000000000000000000000003A
:10567000000000000000000000000000000000002A
:10568000000000000000000000000000000000001A
:10569000000000000000000000000000000000000A
:1056A00000000000000001000000000000000000F9
:1056B00000000000000000000000000000000000EA
:1056C00001000000100000000000000000A24A04D9
:04000005080000ED02
:00000001FF
